:100000000C9434000C9451000C9451000C94510049
:100010000C9451000C9451000C9451000C9451001C
:100020000C9451000C9451000C9451000C9451000C
:100030000C9451000C9451000C9451000C945100FC
:100040000C9451000C9451000C9451000C945100EC
:100050000C9451000C9451000C9451000C945100DC
:100060000C9451000C94510011241FBECFEFD8E026
:10007000DEBFCDBF11E0A4E0B1E001C01D92A6300B
:10008000B107E1F711E0A0E0B1E0E6E3F9E002C07A
:1000900005900D92A430B107D9F70E9414010C9479
:1000A00099040C94000087B18A7F87B93D9A509AD1
:1000B000529A559A579A219A229A259A089596B15A
:1000C000917080910501882319F420E030E006C08A
:1000D00020E030E0992311F421E030E09093050115
:1000E000C901089596B1947080910401882319F490
:1000F00020E030E006C020E030E0992311F421E058
:1001000030E090930401C901089598B1482F50E060
:100110009A012170307075E0220F331F7A95E1F754
:100120009F7D922B98B99BB19A01227030703595C2
:1001300027959E7F922B9BB99BB19A0124703070BA
:100140009B7F922B9BB99BB19A0128703070B3E0D2
:1001500035952795BA95E1F7A5E0220F331FAA95AB
:10016000E1F79F7D922B9BB99BB19A012071307072
:10017000F4E035952795FA95E1F73695322F222749
:10018000379527959F77922B9BB995B19A0120724D
:10019000307075E0359527957A95E1F7220F331F7A
:1001A0009D7F922B95B995B14074507036E055956E
:1001B00047953A95E1F7440F551F440F551F9B7F14
:1001C000942B95B995B1881F8827881F8295880F31
:1001D000807E9F7D982B95B90895259A089585B1C5
:1001E00090E2892785B908958BEC92E40E947E0104
:1001F0000E94790184B90E94790183B90E94790132
:1002000085B90E94790187B90E94790186B90E9457
:10021000790188B90E9479018AB90E94790189B966
:100220000E9479018BB908951F930E94F4000E94E7
:10023000530010E00E945F00892B09F01F5F0E94AD
:100240007200892B09F01150812F0E948500F2CF96
:10025000A0E0B0E0EEE2F1E00C944804EC01A880EC
:10026000B980CA80DB80A114B104C104D10441F477
:1002700084E2A82E89EDB82E8BE5C82E87E0D82E13
:10028000C601B5012DE133EF41E050E00E942504A5
:1002900027EA31E440E050E00E9406047B018C0133
:1002A000C601B5012DE133EF41E050E00E94250485
:1002B000CA01B9012CEE34EF4FEF5FEF0E94060444
:1002C0006E0D7F1D801F911F97FF04C0615070400D
:1002D00080409048688379838A839B839B013F7722
:1002E000C901CDB7DEB7EAE00C9464040E9428018E
:1002F000089580E091E00E9428010895A0E0B0E018
:100300008093000190930101A0930201B093030137
:100310000895ABE0B0E0EFE8F1E00C9440043C015C
:100320002B015A01FC0117821682838181FD03C0D3
:100330006FEF7FEFC6C19AE0892E1E010894211C41
:10034000311CF3012381F20123FD859123FF81916B
:100350002F01882309F4B2C1853239F423FD859138
:1003600023FF81912F01853229F490E0B3010E948F
:100370007C03E7CF982FFF24EE249924FFE1FF159B
:10038000D0F09B3269F09C3228F4903259F09332CD
:1003900091F40EC09D3249F0903369F441E024C0DD
:1003A00052E0F52A84E0F82A28C098E0F92A25C00E
:1003B000E0E1FE2A22C0F7FC29C0892F80538A3051
:1003C00070F4F6FE05C0989C902C1124980E15C070
:1003D000E89CE02C1124E80EF0E2FF2A0EC09E32C9
:1003E00029F4F6FC6BC140E4F42A07C09C3619F4EA
:1003F00050E8F52A02C0983649F4F20123FD9591A0
:1004000023FF91912F01992309F0B8CF892F8554AB
:10041000833018F08052833038F444E050E0A40E6A
:10042000B51E5FE359830FC0933631F0933779F0EF
:10043000933509F056C020C0F5018081898342E0E0
:1004400050E0A40EB51E610101E010E012C0F501FC
:10045000C080D180F6FC03C06FEF7FEF02C0692D32
:1004600070E042E050E0A40EB51EC6010E94710388
:100470008C015FE7F52214C0F501C080D180F6FC45
:1004800003C06FEF7FEF02C0692D70E042E050E0E3
:10049000A40EB51EC6010E9466038C0150E8F52A21
:1004A000F3FE07C01AC080E290E0B3010E947C0313
:1004B000EA948E2D90E008171907A8F30EC0F601F4
:1004C000F7FC8591F7FE81916F0190E0B3010E94E6
:1004D0007C03E110EA94015010400115110579F7F1
:1004E000EAC0943611F0993669F5F7FE08C0F501B7
:1004F000208131814281538184E090E00AC0F5017E
:10050000808191819C01442737FD4095542F82E0E2
:1005100090E0A80EB91E9FE6F92257FF09C050953A
:100520004095309521953F4F4F4F5F4FE0E8FE2AB1
:10053000CA01B901A1012AE030E00E94A803D82E27
:10054000D21840C0953729F41F2D1F7E2AE030E0D5
:100550001DC01F2D197F9F3661F0903720F498350C
:1005600009F0ACC00FC0903739F0983709F0A6C039
:1005700004C028E030E00AC0106114FD146020E1DE
:1005800030E004C014FD166020E132E017FF08C01F
:10059000F501608171818281938144E050E008C05F
:1005A000F50180819181BC0180E090E042E050E063
:1005B000A40EB51EA1010E94A803D82ED2188FE761
:1005C000F82EF122F6FE0BC05EEFF522D91438F4B6
:1005D000F4FE07C0F2FC05C08FEEF82202C01D2D0C
:1005E00001C0192DF4FE0DC0FE01ED0DF11D80813D
:1005F000803319F499EEF92208C01F5FF2FE05C09E
:1006000003C08F2D867809F01F5F0F2DF3FC14C0F7
:10061000F0FE0FC01E1510F09D2C0BC09D2C9E0CE3
:10062000911A1E2D06C080E290E0B3010E947C0367
:100630001F5F1E15C0F304C01E1510F4E11A01C09F
:10064000EE2404FF0FC080E390E0B3010E947C031E
:1006500002FF1DC001FD03C088E790E00EC088E5E1
:1006600090E00BC0802F867891F001FF02C08BE2F2
:1006700001C080E2F7FC8DE290E0B3010E947C03B0
:1006800006C080E390E0B3010E947C039A94D914E1
:10069000C0F3DA94F101ED0DF11D808190E0B3011A
:1006A0000E947C03DD20A9F706C080E290E0B30140
:1006B0000E947C03EA94EE20C1F743CEF3016681E9
:1006C0007781CB012B96E2E10C945C04FC01059050
:1006D000615070400110D8F7809590958E0F9F1F44
:1006E0000895FC016150704001900110D8F7809589
:1006F00090958E0F9F1F08950F931F93CF93DF93B5
:100700008C01EB018B8181FF1BC082FF0DC02E810C
:100710003F818C819D812817390764F4E881F98134
:100720000193F983E88306C0E885F985802F099550
:10073000892B31F48E819F8101969F838E8302C025
:100740000FEF1FEFC801DF91CF911F910F91089517
:10075000FA01AA27283051F1203181F1E8946F93F2
:100760006E7F6E5F7F4F8F4F9F4FAF4FB1E03ED098
:10077000B4E03CD0670F781F891F9A1FA11D680F36
:10078000791F8A1F911DA11D6A0F711D811D911D69
:10079000A11D20D009F468943F912AE0269F1124DE
:1007A0003019305D3193DEF6CF010895462F477042
:1007B000405D4193B3E00FD0C9F7F6CF462F4F709D
:1007C000405D4A3318F0495D31FD4052419302D0FB
:1007D000A9F7EACFB4E0A6959795879577956795A1
:1007E000BA95C9F700976105710508959B01AC01A1
:1007F0000A2E06945795479537952795BA95C9F7C8
:10080000620F731F841F951FA01D0895629FD00162
:10081000739FF001829FE00DF11D649FE00DF11DBB
:10082000929FF00D839FF00D749FF00D659FF00D6A
:100830009927729FB00DE11DF91F639FB00DE11D57
:10084000F91FBD01CF011124089597FB092E05263C
:100850000ED057FD04D04BD00AD0001C38F4509570
:100860004095309521953F4F4F4F5F4F0895F6F7D4
:1008700090958095709561957F4F8F4F9F4F08950C
:100880002F923F924F925F926F927F928F929F92A0
:10089000AF92BF92CF92DF92EF92FF920F931F938E
:1008A000CF93DF93CDB7DEB7CA1BDB0B0FB6F8943F
:1008B000DEBF0FBECDBF09942A88398848885F847F
:1008C0006E847D848C849B84AA84B984C884DF80F0
:1008D000EE80FD800C811B81AA81B981CE0FD11DD4
:1008E0000FB6F894DEBF0FBECDBFED010895A1E2B3
:1008F0001A2EAA1BBB1BFD010DC0AA1FBB1FEE1F9A
:10090000FF1FA217B307E407F50720F0A21BB30BE4
:10091000E40BF50B661F771F881F991F1A9469F760
:1009200060957095809590959B01AC01BD01CF01BC
:060930000895F894FFCFCA
:0409360001000000BC
:00000001FF
